:100000000C948D010C94DB0C0C94B00C0C94850CAE
:100010000C945A0C0C942F0C0C94040C0C94D90BCB
:100020000C94AE0B0C94BE010C94BE010C94BE015A
:100030000C94BE010C94BE010C94BE010C94BE0144
:100040000C94BE010C94BE010C94BE010C94BE0134
:100050000C94BE010C94BE010C94BE010C94640B74
:100060000C94BE010C94300D0C94060D0C94BE0142
:100070000C94BE010C94BE010C94BE010C94BE0104
:100080000C94BE010C94BE010C94BE010C94BE01F4
:100090000C94BE010C94BE010C94BE010C94BE01E4
:1000A0000C94BE010C94BE010C94BE010C94BE01D4
:1000B0000C94BE010C94BE010C94BE010C94BE01C4
:1000C0000C94BE010C94BE010C94BE010C94BE01B4
:1000D0000C94BE010C94BE010C94BE010C94BE01A4
:1000E0000C94BE01084AD73B3BCE016E84BCBFFDD9
:1000F000C12F3D6C74319ABD56833DDA3D00C77FF8
:1001000011BED9E4BB4C3E916BAAAABE0000008090
:100110003F05A84CCDB2D44EB93836A9020C50B91F
:10012000918688083CA6AAAA2ABE000000803F004B
:100130000C9466040C9498030C945B030C942E04AA
:100140000C943D030C94AC030C9475030C94910235
:100150000C9438030C94A9020C94B7020C948A02F4
:100160000C94B6030C94B3020C9470020C946405C6
:100170000C9489030C940C040C94C0030C94440953
:100180000C947F030C94A2030C94150E0C94510351
:100190000C944C050C9420040C9405070C94BD029F
:1001A0000C94C1020C9482020C946B030C945E05B7
:1001B0000C9497020C9430030C948E020C94460518
:1001C0000C94AF020C949B020C94D0030C94B304D7
:1001D0000C946B020C94FD030C9463030C94470382
:1001E0000C94A1020C94C9050C94CA030C948602C9
:1001F0000C94A5020C94CF030000200023002600DD
:1002000029002C002F00320000010000030106012C
:10021000090100002100240027002A002D003000E1
:10022000330001010000040107010A01000022005F
:10023000250028002B002E003100340002010000B0
:10024000050108010B010505050507050808080853
:10025000020202020A0A080804040404010101015E
:100260000101010103030303030303030407070759
:100270000C0C0C0C0C0C0C0C0202020206060606FE
:10028000060606060B0B0B0B0B0B0B0B01021020CB
:1002900020080810204010204080020102010804BC
:1002A0000201010204081020408080402010080450
:1002B00002018004020180402010080402010804A9
:1002C00002010102040810204080010204081020ED
:1002D000408000000A0B02090C0D0E080703040100
:1002E000000000000000000000000000000000000E
:1002F00000000000000000000000000000001211DB
:1003000010000000000000000000000000000000DD
:100310000000000000000000150E11241FBECFEFEA
:10032000D1E2DEBFCDBF00E00CBF13E0A0E0B2E041
:10033000E2E3FEE200E00BBF02C007900D92A23B99
:10034000B107D9F726E0A2EBB3E001C01D92A83FA8
:10035000B207E1F711E0CDE8D1E000E006C0219757
:100360000109802FFE010E94D615CC38D10780E00C
:100370000807A9F70E94D60F0C9417170C940000D9
:100380004F925F926F927F928F929F92AF92BF92A5
:10039000CF92DF92EF92FF92CF93DF93EC014A016D
:1003A0005B01888A998AAA8ABB8A2C893D894E89F1
:1003B0005F89CB01B4010E94AA112B013C014C8A38
:1003C0005D8A6E8A7F8ACC84DD84EE84FF84A701F7
:1003D00096010E94B41418162CF4CC8ADD8AEE8A99
:1003E000FF8A0CC0F7FAF094F7F8F094A701960191
:1003F000C301B2010E94881287FDEFCF888E998ECB
:10040000AA8EBB8E2C893D894E895F896C817D8146
:100410008E819F810E94C1146B017C0128813981EA
:100420004A815B81C501B4010E94C1149B01AC01EA
:10043000C701B6010E94AA116B017C01288539858C
:100440004A855B85C501B4010E94C1149B01AC01C2
:10045000C701B6010E94AA11DF91CF91FF90EF90E2
:10046000DF90CF90BF90AF909F908F907F906F90D4
:100470005F904F900895282F30E0F901EE52FD4F24
:100480009491F901E457FD4F44912A5B3D4FF901E6
:100490002491222309F435C0992311F1915092310E
:1004A000F8F4E92FF0E08827E75AFD4F8F4F0C94BE
:1004B000D6158A028E026B028202860270029102B7
:1004C00097029B02A102A502A902AF02B302700229
:1004D000B702BD02C102809180008F7780938000B7
:1004E000E22FF0E0EE0FFF1FE45DFD4FA591B49108
:1004F0008FB7F894EC91611148C040954E234C930E
:100500008FBF0895809180008F7DE8CF809180001B
:10051000877FE4CF84B58F7784BDE2CF84B58F7DAC
:10052000FBCF8091B0008F778093B000D9CF8091BE
:10053000B0008F7DF9CF809190008F7780939000ED
:10054000CFCF809190008F7DF9CF80919000877FF1
:10055000F5CF8091A0008F778093A000C1CF8091CC
:10056000A0008F7DF9CF8091A000877FF5CF80918B
:1005700020018F7780932001B3CF809120018F7D60
:10058000F9CF80912001877FF5CF4E2BB8CFCF9345
:10059000DF9390E0FC01E457FD4F24918A5B9D4F6F
:1005A000FC0184918823D1F090E0880F991FFC0111
:1005B000EE5EFD4FA591B491FC01E45DFD4FC59148
:1005C000D491623071F49FB7F8943C91822F80955A
:1005D00083238C93E8812E2B28839FBFDF91CF91BB
:1005E00008958FB7F894EC912E2B2C938FBFF6CFF4
:1005F0001F93CF93DF93182FEB0161E00E94C70296
:10060000209739F460E0812FDF91CF911F910C94F6
:100610003B02CF3FD10511F461E0F5CFE12FF0E0CF
:10062000EE52FD4FE491E150E23108F0B3C0F0E04A
:100630008827E25EFC4F8F4F0C94D61530033803A9
:100640003D0347035103CA035B0363036B03750355
:100650007F0389039803A203CA03AC03B603C00354
:1006600084B5806884BDC7BDDF91CF911F91089587
:1006700084B5806284BDC8BDF7CF8091800080685A
:1006800080938000D0938900C0938800EDCF809143
:100690008000806280938000D0938B00C0938A009A
:1006A000E3CF80918000886080938000D0938D009C
:1006B000C0938C00D9CF8091B00080688093B00047
:1006C000C093B300D1CF8091B00080628093B0001E
:1006D000C093B400C9CF809190008068809390004F
:1006E000D0939900C0939800BFCF80919000806212
:1006F00080939000D0939B00C0939A00B5CF8091D7
:100700009000886080939000D0939D00C0939C00DF
:10071000ABCF8091A00080688093A0008091A00062
:100720008F7B8093A000D093A900C093A8009CCF9A
:100730008091A00080628093A000D093AB00C09312
:10074000AA0092CF8091A00088608093A000D093EF
:10075000AD00C093AC0088CF809120018068809369
:100760002001D0932901C09328017ECF80912001E0
:10077000806280932001D0932B01C0932A0174CF13
:1007800080912001886080932001D0932D01C09337
:100790002C016ACFC038D1050CF03ECF33CF08957D
:1007A000AF92BF92CF92DF92EF92FF920F931F937F
:1007B000CF93DF936C017B018B01040F151FEB01BD
:1007C0005E01AE18BF08C017D10759F06991D60174
:1007D000ED91FC910190F081E02DC6011995892BD6
:1007E00079F7C501DF91CF911F910F91FF90EF90A5
:1007F000DF90CF90BF90AF900895FC01538D448D52
:10080000252F30E0842F90E0821B930B541710F0BB
:10081000CF96089501970895FC01918D828D9817C8
:1008200061F0A28DAE0FBF2FB11D5D968C91928DA0
:100830009F5F9F73928F90E008958FEF9FEF0895D1
:10084000FC01918D828D981731F0828DE80FF11D9A
:10085000858D90E008958FEF9FEF0895FC01918DB5
:10086000228D892F90E0805C9F4F821B91098F73AE
:100870009927089583E794E00E942E0421E0892BB4
:1008800009F420E0822F0895FC01A48DA80FB92F50
:10089000B11DA35ABF4F2C91848D90E001968F73A8
:1008A0009927848FA689B7892C93A089B1898C91C7
:1008B000837080648C93938D848D981306C0028816
:1008C000F389E02D80818F7D80830895EF92FF92E0
:1008D0000F931F93CF93DF93EC0181E0888F9B8D63
:1008E0008C8D98131AC0E889F989808185FF15C01D
:1008F0009FB7F894EE89FF896083E889F989808140
:100900008370806480839FBF81E090E0DF91CF910E
:100910001F910F91FF90EF900895F62E0B8D10E030
:100920000F5F1F4F0F731127E02E8C8D8E110CC09F
:100930000FB607FCFACFE889F989808185FFF5CFEA
:10094000CE010E944404F1CFEB8DEC0FFD2FF11D81
:10095000E35AFF4FF0829FB7F8940B8FEA89FB8927
:1009600080818062CFCFCF93DF93EC01888D882385
:10097000B9F0AA89BB89E889F9898C9185FD03C002
:10098000808186FD0DC00FB607FCF7CF8C9185FFE7
:10099000F2CF808185FFEDCFCE010E944404E9CFE4
:1009A000DF91CF91089580E090E0892B29F00E949B
:1009B0003A0481110E94000080E090E0892B49F008
:1009C00080E090E0892B29F00E94000081110E94B4
:1009D000000080E090E0892B49F080E090E0892BD6
:1009E00029F00E94000081110E94000080E090E048
:1009F000892B49F080E090E0892B29F00E940000CB
:100A000081110C9400000895DC01ED91FD9180812D
:100A1000ED91FD919081ED91FD916C9163708E232C
:100A200009F064609F2309F06860E1E2F5E0E60FF9
:100A3000F11D659565956D936D917D918D919D915C
:100A4000099423C01AC012C016C010C01EC009C02D
:100A500014C013C006C019C009C00DC007C00DC026
:100A600014C062507040804090400BC06150704094
:100A70008040904006C06E5F01C06F5F7F4F8F4F18
:100A80009F4F9E938E937E936E9308958091BC03A7
:100A90009091BD030C9404058091BA039091BB031F
:100AA0000C9404058091B8039091B9030C9404054B
:100AB0008091B6039091B7030C9404058091B40320
:100AC0009091B5030C9404058091B2039091B30307
:100AD0000C940405FC0101900020E9F73197AF0167
:100AE000481B590BBC0183E794E00C94D0038F9210
:100AF0009F92AF92BF920F931F93CF93DF93CDB787
:100B0000DEB7A1970FB6F894DEBF0FBECDBF19A216
:100B1000423008F44AE08E010F5D1F4F842E912C65
:100B2000B12CA12CA50194010E94B415E62FB901A6
:100B3000CA01EA30F4F4E05DD801EE938D01232B75
:100B4000242B252B79F790E080E0109719F0CD0148
:100B50000E946A05A1960FB6F894DEBF0FBECDBF06
:100B6000DF91CF911F910F91BF90AF909F908F9089
:100B70000895E95CE1CFCF93DF930E946A05EC0111
:100B80008CEC92E00E946A058C0F9D1FDF91CF9143
:100B9000089521E0FC0122838FEC92E00C94BB05C8
:100BA0004F925F926F927F928F929F92AF92BF927D
:100BB000CF92DF92EF92FF926B017C01AC019B011F
:100BC0000E9480158823C1F08FED92E00E946A0593
:100BD0007C018CEC92E00E946A058E0D9F1DFF90B7
:100BE000EF90DF90CF90BF90AF909F908F907F90CD
:100BF0006F905F904F90089546015701E894B7F8C1
:100C00002FEF3FEF4FE75FE7C501B4010E9480156A
:100C100081110DC02FEF3FEF4FE75FE7C501B40132
:100C20000E94881218161CF483EE92E0CFCF2FEFAB
:100C30003FEF4FE75FE4C701B6010E94B4141816F6
:100C40001CF487EE92E0C2CF2FEF3FEF4FE75FEC4F
:100C5000C701B6010E94881287FDF3CF20E030E083
:100C6000A901C701B6010E948812B12CA12C87FFEF
:100C70000AC06DE283E794E00E9466045C01F7FA23
:100C8000F094F7F8F0942AE037ED43EA5BE3C7010C
:100C9000B6010E94AA112B013C010E940B136B01AB
:100CA0007C010E943A139B01AC01C301B2010E9476
:100CB000A9112B013C014AE0C701B6010E9477054A
:100CC0007C01EA0CFB1C6EE283E794E00E94660460
:100CD000E80EF91E20E030E040E251E4C301B20129
:100CE0000E94C1142B013C010E940B134B01B12C3B
:100CF000A12C4AE0C501B4010E947705E80EF91E57
:100D0000C501B4010E943A139B01AC01C301B201B9
:100D10000E94A91120E030E040E251E40E94C11499
:100D20000E940B1390E080E04AE00E947705E80EF5
:100D3000F91E4FCF9F92AF92BF92CF92DF92EF9268
:100D4000FF920F931F93CF93DF93CDB7DEB79FA48E
:100D5000A9A8BBA84BA55CA56DA57EA5CE010F9645
:100D60000E94C0010E9404138B016B01770FEE08F3
:100D7000FF084AE0C701B601F7FE0DC06DE283E748
:100D800094E00E94660466277727CB016C197D09E1
:100D90008E099F094AE00E9477058CEC92E00E9440
:100DA0006A050F3F110509F09CF401308FEF180719
:100DB0004CF117FF0FC060E0892D0E943B0261E0FB
:100DC0008A2D0E943B0266277727601B710B0BC0A0
:100DD0000FEF10E061E0892D0E943B0260E08A2D58
:100DE0000E943B02B8018B2D0E94F802DF91CF9147
:100DF0001F910F91FF90EF90DF90CF90BF90AF9039
:100E00009F90089501E01FEFD6CF2F923F924F920F
:100E10005F926F927F928F929F92AF92BF92CF928A
:100E2000DF92EF92FF920F931F93CF93DF93CDB793
:100E3000DEB764970FB6F894DEBF0FBECDBF8C014E
:100E400020914704309148044091490450914A044C
:100E5000FC0163817481858196810E94A9112B0117
:100E60003C0120914B0430914C0440914D04509131
:100E70004E04F80167817085818592850E94A911D1
:100E80004B015C01A3019201C301B2010E94C11494
:100E90006B017C01A5019401C501B4010E94C1143C
:100EA0009B01AC01C701B6010E94AA110E943C152A
:100EB0006B017C01A3019201C501B4010E942912BA
:100EC00020914F04309150044091510450915204AC
:100ED0000E94A911698B7A8B8B8B9C8B8BEE92E095
:100EE0000E946A05C701B6010E94D00520E030E0EB
:100EF00040E251E4C701B6010E94881287FF07C093
:100F000081E0F80182838CEF92E00E94BB052DEC1A
:100F10003CEC4CE45DE369897A898B899C890E9469
:100F2000B41418161CF4C12CD12C760183E093E084
:100F30000E94BB05F80183849484A584B684B7011C
:100F4000A6018FEC93E00E94C001162F072F382EC8
:100F5000292E20E030E0A901C501B4010E948812C9
:100F6000811106C0812C912C8AE7A82E84E4B82E2A
:100F70006091000270910102072E000C880B990B02
:100F80000E943C136B017C0120E030E0A901612F3D
:100F9000702F832D922D0E94B4144090C603509060
:100FA000C7036090C8037090C90387FD1EC1A701E5
:100FB0009601612F702F832D922D0E94B414181664
:100FC00024F0C12ED02EE32CF22CA5019401C701F0
:100FD000B6010E94B414181614F046015701A3017B
:100FE0009201C501B4010E94A9116B017C0120E0AE
:100FF00030E046E952E40E94B41420E030E046E9D3
:1010000052E418160CF43BC120E030E041E653EC0A
:10101000C701B6010E94881220E030E041E653E4A7
:1010200087FD17C18092C6039092C703A092C803A0
:10103000B092C90380923F0490924004A092410470
:10104000B092420449895A896B897C898BEE93E07E
:101050000E94C0016093430470934404809345044C
:101060009093460483E193E00E94BB0540903F04C7
:10107000509040046090410470904204C09043043A
:10108000D0904404E0904504F090460488E0E3E505
:10109000F4E0DE01119601900D928A95E1F7A70127
:1010A0009601C301B2010E94A91129813A814B81A5
:1010B0005C810E94A911962E872EB82EA92E88E059
:1010C000E3E5F4E0DE01199601900D928A95E1F7CF
:1010D000A7019601C301B2010E94AA112D853E8588
:1010E0004F8558890E94A911162F072FF82EE92E37
:1010F00088E293E00E94BB05A4019501652F742F3F
:10110000832F922F0E94D00583E393E00E94BB05BA
:10111000A8019701652F742F832F922F0E94D0056D
:101120001F928AE08F931F9288E08F931F9289E02D
:101130008F93AF92BF928F929F928DB79EB74C972D
:101140000FB6F8949EBF0FBE8DBFADB7BEB7119658
:101150008CE1E7E0F4E001900D928A95E1F70E94BE
:101160009A060FB6F894DEBF0FBECDBF1F9286E081
:101170008F931F9285E08F931F9284E08F93EF925D
:10118000FF920F931F938DB79EB74C970FB6F894AD
:101190009EBF0FBE8DBFADB7BEB711968CE1E3E227
:1011A000F4E001900D928A95E1F70E949A060FB63D
:1011B000F894DEBF0FBECDBF64960FB6F894DEBFC5
:1011C0000FBECDBFDF91CF911F910F91FF90EF9098
:1011D000DF90CF90BF90AF909F908F907F906F9057
:1011E0005F904F903F902F900895F7FAF094F7F8A2
:1011F000F094A7019601612F702F832D922D0E94EC
:10120000881287FD04C0C12ED02EE32CF22CB7FA31
:10121000B094B7F8B094A7019601C501B4010E943B
:10122000B414181614F046015701A3019201C50128
:10123000B4010E94A9116B017C0120E030E046E975
:1012400052EC0E94881287FF0BC020E030E046E994
:1012500052E4C301B2010E94A9114B015C01E2CE2C
:1012600020E030E041E653E4C701B6010E94B41427
:1012700018160CF0D7CE20E030E041E653E4C3016D
:10128000B2010E94AA11E9CF4F925F926F927F92B2
:101290008F929F92AF92BF92CF92DF92EF92FF9286
:1012A000CF93DF9300D000D0CDB7DEB78091E706B3
:1012B000823008F005C2F8948CED96E00E94040597
:1012C0008091E3069091E406A091E506B091E606D0
:1012D00089839A83AB83BC8378948091F3068230B0
:1012E00008F0F0C1F89488EE96E00E940405809121
:1012F000EF069091F006A091F106B091F206789475
:1013000022273327281B390B3E832D838FE393E05D
:101310000E94BB058091C4039091C50369817A81C5
:10132000681B790B072E000C880B990B0E943C134D
:1013300020E030E040E652E40E94C1142BED3FE093
:1013400049E450E40E94C11420E030E04DE055E44F
:101350000E9492126B017C018091C2039091C303A1
:101360006D817E81681B790B072E000C880B990B11
:101370000E943C1320E030E040E652E40E94C11499
:101380002BED3FE049E450E40E94C11420E030E03E
:101390004DE055E40E9492124B015C0120E030E0E8
:1013A00040EA51E4C701B6010E94C114609353049E
:1013B00070935404809355049093560420E030E0D9
:1013C00040EA51E4C501B4010E94C114609357047E
:1013D000709358048093590490935A04A70196017E
:1013E000C501B4010E94A91120E030E049E553E4B1
:1013F0000E94291220914F043091500440915104D1
:10140000509152040E94AA112BED3FE049EC50E4A8
:101410000E9482132B013C0140924F0450925004D1
:101420006092510470925204A5019401C701B60163
:101430000E94AA1120E030E040E05FE30E94C11466
:101440006B017C012091BE033091BF034091C0032A
:101450005091C103C301B2010E94AA1120E030E003
:1014600040E05FE30E94C1144B015C010E948D12B9
:101470009B01AC01C701B6010E94C1149B01AC01E4
:1014800060914704709148048091490490914A0406
:101490000E94AA1160934704709348048093490402
:1014A00090934A04C501B4010E942E159B01AC0122
:1014B000C701B6010E94C1149B01AC0160914B04AD
:1014C00070914C0480914D0490914E040E94AA1199
:1014D00060934B0470934C0480934D0490934E049E
:1014E000C701B6010E94D00584E593E00E94BB05C8
:1014F00060914704709148048091490490914A0496
:101500000E94D00560914B0470914C0480914D0471
:1015100090914E040E94D00580914F049091500408
:10152000A0915104B09152048093BE039093BF03E5
:10153000A093C003B093C1038D819E819093C30398
:101540008093C203A981BA81B093C503A093C40359
:101550008FEF9FE7909301028093000280910A062B
:1015600090910B06FC01EE0FFF1FEA55FA4F019018
:10157000F081E02D2281222309F475C020910C0610
:1015800030910D068217930709F46DC0019662E34E
:1015900070E00E94A01590930B0680930A061092AB
:1015A000DF031092E0031092E1031092E203109225
:1015B000E7031092E8031092E9031092EA031092F5
:1015C000E3031092E4031092E5031092E6031092F5
:1015D000FB031092FC031092FD031092FE03109285
:1015E0000304109204041092050410920604109251
:1015F000FF03109200041092010410920204109252
:101600001704109218041092190410921A041092E0
:101610001F041092200410922104109222041092B0
:101620001B0410921C0410921D0410921E041092B0
:101630003304109234041092350410923604109240
:101640003B0410923C0410923D0410923E04109210
:101650003704109238041092390410923A0489E544
:1016600093E00E94BB05E0910A06F0910B06EE0F95
:10167000FF1FEA55FA4F80819181DC01ED91FC91C9
:101680000190F081E02D199585E693E00E94BB055D
:101690008AE893E026960FB6F894DEBF0FBECDBF62
:1016A000DF91CF91FF90EF90DF90CF90BF90AF9000
:1016B0009F908F907F906F905F904F900C94BB05A0
:1016C000F894FECDF89413CE1F920F920FB60F929E
:1016D00011242F933F938F939F93AF93BF93809148
:1016E0000E0690910F06A0911006B0911106309150
:1016F000CE0323E0230F2D3758F50196A11DB11D10
:101700002093CE0380930E0690930F06A0931006AD
:10171000B09311068091CA039091CB03A091CC03A2
:10172000B091CD030196A11DB11D8093CA03909382
:10173000CB03A093CC03B093CD03BF91AF919F9106
:101740008F913F912F910F900FBE0F901F90189582
:1017500026E8230F0296A11DB11DD2CF1F920F9232
:101760000FB60F9211240BB60F922F933F934F9306
:101770005F936F937F938F939F93AF93BF93EF93F9
:10178000FF93E0911002F09111021995FF91EF91F2
:10179000BF91AF919F918F917F916F915F914F9189
:1017A0003F912F910F900BBE0F900FBE0F901F9087
:1017B00018951F920F920FB60F9211240BB60F922D
:1017C0002F933F934F935F936F937F938F939F9349
:1017D000AF93BF93EF93FF93E0910E02F0910F024E
:1017E0001995FF91EF91BF91AF919F918F917F914B
:1017F0006F915F914F913F912F910F900BBE0F9082
:101800000FBE0F901F9018951F920F920FB60F9258
:1018100011240BB60F922F933F934F935F936F93C7
:101820007F938F939F93AF93BF93EF93FF93E09139
:101830000402F09105021995FF91EF91BF91AF91CC
:101840009F918F917F916F915F914F913F912F91D8
:101850000F900BBE0F900FBE0F901F9018951F9208
:101860000F920FB60F9211240BB60F922F933F9346
:101870004F935F936F937F938F939F93AF93BF9398
:10188000EF93FF93E0910202F09103021995FF910B
:10189000EF91BF91AF919F918F917F916F915F91E8
:1018A0004F913F912F910F900BBE0F900FBE0F9055
:1018B0001F9018951F920F920FB60F9211240BB61E
:1018C0000F922F933F934F935F936F937F938F93D9
:1018D0009F93AF93BF93EF93FF93E0910C02F0912E
:1018E0000D021995FF91EF91BF91AF919F918F914B
:1018F0007F916F915F914F913F912F910F900BBE10
:101900000F900FBE0F901F9018951F920F920FB659
:101910000F9211240BB60F922F933F934F935F9327
:101920006F937F938F939F93AF93BF93EF93FF93A7
:10193000E0910A02F0910B021995FF91EF91BF918E
:10194000AF919F918F917F916F915F914F913F9157
:101950002F910F900BBE0F900FBE0F901F901895F8
:101960001F920F920FB60F9211240BB60F922F9366
:101970003F934F935F936F937F938F939F93AF9317
:10198000BF93EF93FF93E0910802F091090219953C
:10199000FF91EF91BF91AF919F918F917F916F9147
:1019A0005F914F913F912F910F900BBE0F900FBE03
:1019B0000F901F9018951F920F920FB60F9211243F
:1019C0000BB60F922F933F934F935F936F937F9339
:1019D0008F939F93AF93BF93EF93FF93E091060292
:1019E000F09107021995FF91EF91BF91AF919F91EF
:1019F0008F917F916F915F914F913F912F910F90B8
:101A00000BBE0F900FBE0F901F9018951F920F9254
:101A10000FB60F9211240BB60F922F933F934F9353
:101A20005F936F937F938F939F93AF93BF93EF9346
:101A3000FF9383E794E00E944404FF91EF91BF91EC
:101A4000AF919F918F917F916F915F914F913F9156
:101A50002F910F900BBE0F900FBE0F901F901895F7
:101A60001F920F920FB60F9211240BB60F922F9365
:101A70008F939F93EF93FF93E0918304F0918404FD
:101A80008081E0918904F0918A0482FD1DC09081DB
:101A900080918C048F5F8F7320918D04821741F0A9
:101AA000E0918C04F0E0ED58FB4F958F80938C040F
:101AB000FF91EF919F918F912F910F900BBE0F90FF
:101AC0000FBE0F901F9018958081F2CF833071F177
:101AD00020F48230C1F080E008958231C9F1833171
:101AE000D1F77093BB036093BA038CE495E09093B5
:101AF0000B0280930A02809169008F7C8061809341
:101B00006900EA9A11C07093B3036093B20384E64C
:101B100095E0909303028093020280916A008C7F8B
:101B2000816080936A00EC9A81E008957093B50318
:101B30006093B4038EE595E09093050280930402D0
:101B400080916A00837F846080936A00ED9AECCF75
:101B50007093BD036093BC0386E495E090930D02FF
:101B600080930C02809169008F7380648093690078
:101B7000EB9ADACF0F931F93CF93DF93EC01062FED
:101B8000142F62E0802F0E94C70262E0812F0E9422
:101B9000C702802F90E0FC01EA5BFD4FE491F0E08A
:101BA000EE0FFF1FE850FE4FA591B491B983A883B3
:101BB000FC01E457FD4F24912C83812F90E0FC0120
:101BC000EA5BFD4FE491F0E0EE0FFF1FE850FE4F9F
:101BD000459154915B834A83FC01E457FD4FE491A6
:101BE000ED831F82188619861A868BE39FE1019781
:101BF000F1F78C91282391E009F490E0DA018C91BF
:101C0000E82309F092609E83BE01802F0E94660D3A
:101C10008B87BE01812F0E94660D9B85890F8B8764
:101C2000DF91CF911F910F910895CF93DF9380E0C3
:101C300090E0A0E0B1E48093CF039093D003A09311
:101C4000D103B093D2031092D3031092D403109215
:101C5000D5031092D6031092D7031092D803109296
:101C6000D9031092DA031092DB031092DC03109276
:101C7000DD031092DE031092DF031092E003109256
:101C8000E1031092E2031092E3031092E403109236
:101C9000E5031092E6031092E7031092E803109216
:101CA000E9031092EA038AE097EDA3EABDE380938B
:101CB000EB039093EC03A093ED03B093EE0310922B
:101CC000EF031092F0031092F1031092F2031092BE
:101CD000F3031092F4031092F5031092F60310929E
:101CE000F7031092F8031092F9031092FA0310927E
:101CF000FB031092FC031092FD031092FE0310925E
:101D0000FF0310920004109201041092020410923A
:101D100003041092040410920504109206048DEC42
:101D20009CECACECBEE38093070490930804A09372
:101D30000904B0930A0410920B0410920C04109240
:101D40000D0410920E0410920F04109210041092C1
:101D500011041092120410921304109214041092A1
:101D60001504109216041092170410921804109281
:101D7000190410921A0410921B0410921C04109261
:101D80001D0410921E0410921F0410922004109241
:101D90002104109222048093230490932404A0939E
:101DA0002504B09326041092270410922804109260
:101DB000290410922A0410922B0410922C041092E1
:101DC0002D0410922E0410922F04109230041092C1
:101DD00031041092320410923304109234041092A1
:101DE0003504109236041092370410923804109281
:101DF000390410923A0410923B0410923C04109261
:101E00003D0410923E0410923F0410924004109240
:101E10004104109242041092430410924404109220
:101E2000450410924604109276041092750488EED0
:101E300093E0A0E0B0E08093770490937804A093BF
:101E40007904B0937A048EEB92E0909374048093BB
:101E5000730485EC90E09093800480937F0484EC7D
:101E600090E0909382048093810480EC90E09093C2
:101E700084048093830481EC90E0909386048093A3
:101E8000850482EC90E0909388048093870486EC2C
:101E900090E090938A048093890410928C041092AD
:101EA0008D0410928E0410928F04109247041092A9
:101EB00048041092490410924A0410924B04109264
:101EC0004C0410924D0410924E0410924F04109244
:101ED0005004109251041092520410925304109224
:101EE0005404109255041092560410925704109204
:101EF00058041092590410925A0442E163E08BE5B1
:101F000094E00E94BA0D42E063E187E694E00E940B
:101F1000BA0D86E9E8E1F2E0A0E1B5E001900D92AA
:101F20008A95E1F7E6EAF5E084E6DF011D928A95FD
:101F3000E9F710920B0610920A0610920D06109205
:101F40000C061092120585E993E00E94BB0542E160
:101F500063E088EE96E00E94BA0D42E063E18CED0A
:101F600096E00E94BA0D2FB7F89480910E069091DA
:101F70000F06A0911006B09111062FBFE2E1F6E026
:101F800024E1EF01322F19923A95E9F7808391838A
:101F9000A283B3837496C6E0EA3DFC0791F71092E2
:101FA000DB061092DA06DF91CF910895789484B51C
:101FB000826084BD84B5816084BD85B5826085BD45
:101FC00085B5816085BD80916E00816080936E00D3
:101FD00010928100809181008260809381008091C5
:101FE0008100816080938100809180008160809376
:101FF00080008091B10084608093B1008091B00036
:1020000081608093B0008091910082608093910004
:102010008091910081608093910080919000816017
:10202000809390008091A10082608093A1008091B4
:10203000A10081608093A1008091A00081608093C5
:10204000A000809121018260809321018091210173
:102050008160809321018091200181608093200123
:1020600080917A00846080937A0080917A00826007
:1020700080937A0080917A00816080937A008091C9
:102080007A00806880937A001092C100E091830406
:10209000F091840482E08083E0917F04F0918004D9
:1020A0001082E0918104F09182048FEC8083109281
:1020B0008B04E0918704F091880486E08083E091AE
:1020C0008504F0918604808180618083E09185049D
:1020D000F0918604808188608083E0918504F0918E
:1020E0008604808180688083E0918504F091860475
:1020F00080818F7D80838091DA069091DB060A973C
:1021000070F4E2E1F6E090E080E024813581232B59
:1021100009F4EBC0019674968A309105B1F78FE00F
:1021200090E00E94F215EC011A8288EB92E099830C
:10213000888380E090E0AAEFB4E48B839C83AD8336
:10214000BE831F82188619861A861B861C861D86EA
:102150001E8680910C0690910D06019662E370E058
:102160000E94A01590930D0680930C06880F991F6E
:10217000FC01EA55FA4F808191810E948E16E09110
:102180000C06F0910D06EE0FFF1FEA55FA4FD183B2
:10219000C0834AEDC42E46E0D42EEE24E394F12C05
:1021A00064E1362E8FB7F89440900E0650900F06DB
:1021B00060901006709011068FBF02E116E0E801F2
:1021C0001B8A1A8A8C819D81892B31F188819981A2
:1021D000AA81BB8149855A856B857C855301420163
:1021E000881A990AAA0ABB0A84169506A606B70693
:1021F00098F0840F951FA61FB71F88839983AA8321
:10220000BB838989882341F02D853E8521153105C1
:1022100009F055C0FB8AEA8A6496CC16DD0681F681
:10222000D80152968D919C915397892BD9F1149690
:10223000ED91FC91159718968C911897882309F4C5
:1022400052C016968D919C911995F80182899389B7
:10225000029741F58091DA069091DB06892B11F106
:1022600084819581892BF1F0D801E32D1D92EA95A7
:10227000E9F72FB7F89480910E0690910F06A09180
:102280001006B09111062FBFF80180839183A283BD
:10229000B3838091DA069091DB0601979093DB0679
:1022A0008093DA060C5E1F4F0C171D0709F0B8CF9C
:1022B0008CEA93E00E94BB050E94D30473CF8F8504
:1022C00098898217930708F0A7CFFB8AEA8A0196BC
:1022D000988B8F878217930708F49ECF82E090E057
:1022E0009B8B8A8B99CF1995B0CF24E1289FF00161
:1022F000299FF00D1124EE5EF94F82E390E0A0E0FB
:10230000B0E081879287A387B48784E499E09583BE
:1023100084831782168210861686158681E0818B4B
:102320002FB7F89480910E0690910F06A091100699
:10233000B09111062FBF80839183A283B3838091D4
:10234000DA069091DB0601969093DB068093DA061D
:10235000E6CE5058BB27AA270E94C1110C946614E0
:102360000E942D1438F00E94341420F039F49F3F5D
:1023700019F426F40C9403140EF4E095E7FB0C9486
:10238000EF13E92F0E948B1458F3BA1762077307F3
:102390008407950720F079F4A6F50C94AD140EF49B
:1023A000E0950B2EBA2FA02D0B01B90190010C0165
:1023B000CA01A0011124FF27591B99F0593F50F47D
:1023C000503E68F11A16F040A22F232F342F4427D5
:1023D000585FF3CF469537952795A795F0405395CD
:1023E000C9F77EF41F16BA0B620B730B840BBAF09D
:1023F0009150A1F0FF0FBB1F661F771F881FC2F708
:102400000EC0BA0F621F731F841F48F4879577951B
:102410006795B795F7959E3F08F0B0CF9395880FD5
:1024200008F09927EE0F9795879508950E942D142F
:1024300060F080E891E009F49EEF0E94341428F0E7
:1024400040E851E071F45EEF0CC00C9403140C945E
:10245000AD14E92FE0780E948B1440F3092E052A71
:10246000B1F3261737074807590738F00E2E07F83B
:10247000E02569F0E025E0640AC0EF6307F8009406
:1024800007FADB01B9019D01DC01CA01AD01EF933F
:102490000E94A9120E9466140E9459125F9155234E
:1024A00039F02BED3FE049E450FD49EC0C94AA11C2
:1024B0000895DF93DD27B92FBF7740E85FE3161655
:1024C000170648075B0718F4D92F0E94B9149F9389
:1024D0008F937F936F930E947C15E4EEF0E00E944F
:1024E00006140E9466142F913F914F915F910E94B4
:1024F000D414DD2351F09058A2EA2AED3FE049ECD4
:102500005FE3D0785D270E94C111DF910C946614BF
:102510000E94CB1308F481E008950E943D14E395D6
:102520000C9477140E94A6120C9466140E94341422
:1025300058F00E942D1440F029F45F3F29F00C94CC
:10254000EF1351110C94AE140C9403140E948B14CD
:1025500068F39923B1F3552391F3951B550BBB27D2
:10256000AA2762177307840738F09F5F5F4F220F17
:10257000331F441FAA1FA9F335D00E2E3AF0E0E80E
:1025800032D091505040E695001CCAF72BD0FE2F58
:1025900029D0660F771F881FBB1F261737074807EC
:1025A000AB07B0E809F0BB0B802DBF01FF279358A4
:1025B0005F4F3AF09E3F510578F00C94EF130C9466
:1025C000AE145F3FE4F3983ED4F386957795679514
:1025D000B795F7959F5FC9F7880F911D96958795D9
:1025E00097F90895E1E0660F771F881FBB1F6217F8
:1025F00073078407BA0720F0621B730B840BBA0BB6
:10260000EE1F88F7E09508950E940B136894B111AE
:102610000C94AE1408950E94931488F09F5798F07C
:10262000B92F9927B751B0F0E1F0660F771F881FD7
:10263000991F1AF0BA95C9F714C0B13091F00E94F1
:10264000AD14B1E008950C94AD14672F782F88274E
:10265000B85F39F0B93FCCF3869577956795B39518
:10266000D9F73EF490958095709561957F4F8F4F87
:102670009F4F0895E89409C097FB3EF4909580958C
:10268000709561957F4F8F4F9F4F9923A9F0F92F38
:1026900096E9BB279395F695879577956795B795B6
:1026A000F111F8CFFAF4BB0F11F460FF1BC06F5F9C
:1026B0007F4F8F4F9F4F16C0882311F096E911C0AE
:1026C000772321F09EE8872F762F05C0662371F0CF
:1026D00096E8862F70E060E02AF09A95660F771FE3
:1026E000881FDAF7880F9695879597F908950E94C5
:1026F0002D1420F019F00E94341450F40C9403149B
:102700000C94AE14E92F0E948B1488F35523B1F377
:10271000E7FB6217730784079507A8F189F3E92F90
:10272000FF2788232AF03197660F771F881FDAF773
:10273000952F5527442332F091505040220F331FDC
:10274000441FD2F7BB27E91BF50B621B730B840BED
:10275000B109B1F222F4620F731F841FB11D3197CA
:102760002AF0660F771F881FBB1FEFCF9150504094
:1027700062F041F0882332F0660F771F881F915076
:102780005040C1F793950C94F5138695779567950E
:102790009F5FD9F7F7CF990F0008550FAA0BE0E814
:1027A000FEEF16161706E807F907C0F01216130613
:1027B000E407F50798F0621B730B840B950B39F453
:1027C0000A2661F0232B242B252B21F408950A26B9
:1027D00009F4A140A6958FEF811D811D089597F9F9
:1027E0009F6780E870E060E008959F3F31F091506E
:1027F00020F4879577956795B795880F911D9695E5
:10280000879597F908959FEF80EC0895DF93CF9314
:102810001F930F93FF92EF92DF927B018C016894DC
:1028200006C0DA2EEF010E94D414FE01E894A591AF
:102830002591359145915591A6F3EF010E94C11163
:10284000FE019701A801DA9469F7DF90EF90FF90FD
:102850000F911F91CF91DF91089500240A941616CD
:10286000170618060906089500240A94121613067E
:102870001406050608950C9403140E949314D8F3CB
:10288000E894E0E0BB279F57F0F02AED3FE049ECE9
:1028900006C0EE0FBB0F661F771F881F28F0B23AE5
:1028A00062077307840728F0B25A620B730B840B1C
:1028B000E3959A9572F7803830F49A95BB0F661FAE
:1028C000771F881FD2F790480C94F713092E0394B2
:1028D000000C11F4882352F0BB0F40F4BF2B11F40D
:1028E00060FF04C06F5F7F4F8F4F9F4F0895EF933E
:1028F000E0FF07C0A2EA2AED3FE049EC5FEB0E944F
:10290000C1110E9466140F90039401FC9058E1E1FC
:10291000F1E00C948C1557FD9058440F551F59F059
:102920005F3F71F04795880F97FB991F61F09F3FBC
:1029300079F087950895121613061406551FF2CFE5
:102940004695F1DF08C0161617061806991FF1CF35
:1029500086957105610508940895E894BB2766275C
:102960007727CB0197F908950E94CB1308F48FEFD6
:1029700008959B01AC0160E070E080E89FE30C9457
:1029800092120E94D4140C9466140E942D1438F0F4
:102990000E94341420F0952311F00C94EF130C9442
:1029A000031411240C94AE140E948B1470F3959FA1
:1029B000C1F3950F50E0551F629FF001729FBB2736
:1029C000F00DB11D639FAA27F00DB11DAA1F649FD2
:1029D0006627B00DA11D661F829F2227B00DA11D85
:1029E000621F739FB00DA11D621F839FA00D611D0B
:1029F000221F749F3327A00D611D231F849F600D2C
:102A0000211D822F762F6A2F11249F5750409AF054
:102A1000F1F088234AF0EE0FFF1FBB1F661F771FE0
:102A2000881F91505040A9F79E3F510580F00C94AB
:102A3000EF130C94AE145F3FE4F3983ED4F3869505
:102A400077956795B795F795E7959F5FC1F7FE2B4B
:102A5000880F911D9695879597F908959F930E94E9
:102A60003D140F9007FCEE5F0C94771419F416F4E4
:102A70000C9403140C94F5130E949314B8F3992347
:102A8000C9F3B6F39F57550B87FF0E9485150024A5
:102A9000A0E640EA900180585695979528F4805C0E
:102AA000660F771F881F20F026173707480730F476
:102AB000621B730B840B202931294A2BA69517948E
:102AC0000794202531254A2758F7660F771F881F5E
:102AD00020F026173707480730F4620B730B840B7E
:102AE000200D311D411DA09581F7B901842F91580A
:102AF000880F9695879508959B01AC010C94C1149D
:102B00000E94CB13880B990B089591505040660F8B
:102B1000771F881FD2F708959F938F937F936F93AA
:102B2000FF93EF939B01AC010E94C114EF91FF91C1
:102B30000E9406142F913F914F915F910C94C11404
:102B400097FB072E16F4009407D077FD09D00E945A
:102B5000DE1507FC05D03EF4909581959F4F0895B2
:102B6000709561957F4F0895A1E21A2EAA1BBB1B99
:102B7000FD010DC0AA1FBB1FEE1FFF1FA217B30749
:102B8000E407F50720F0A21BB30BE40BF50B661F5F
:102B9000771F881F991F1A9469F760957095809523
:102BA00090959B01AC01BD01CF010895EE0FFF1F71
:102BB000881F8BBF0790F691E02D1994AA1BBB1BB1
:102BC00051E107C0AA1FBB1FA617B70710F0A61B2D
:102BD000B70B881F991F5A95A9F780959095BC014E
:102BE000CD0108950F931F93CF93DF93823091050A
:102BF00010F482E090E0E091F606F091F70630E004
:102C000020E0B0E0A0E0309799F42115310509F4F7
:102C10004AC0281B390B24303105D8F58A819B81A5
:102C20006115710589F1FB0193838283FE0111C057
:102C3000408151810281138148175907E0F04817FC
:102C4000590799F4109761F012960C931297139606
:102C50001C933296CF01DF91CF911F910F91089570
:102C60000093F6061093F706F4CF2115310551F0C5
:102C70004217530738F0A901DB019A01BD01DF01BA
:102C8000F801C1CFEF01F9CF9093F7068093F606D4
:102C9000CDCFFE01E20FF31F8193919322503109B2
:102CA00039832883D7CF2091F4063091F506232B62
:102CB00041F420911402309115023093F5062093CF
:102CC000F40620911202309113022115310541F4CE
:102CD0002DB73EB74091160250911702241B350BB9
:102CE000E091F406F091F506E217F307A0F42E1B2D
:102CF0003F0B2817390778F0AC014E5F5F4F241760
:102D0000350748F04E0F5F1F5093F5064093F406C9
:102D1000819391939FCFF0E0E0E09CCFCF93DF933E
:102D20000097E9F0FC01329713821282A091F60617
:102D3000B091F706ED0130E020E01097A1F420817A
:102D40003181820F931F2091F4063091F5062817E8
:102D5000390709F061C0F093F506E093F406DF91BE
:102D6000CF910895EA01CE17DF07E8F54A815B812C
:102D70009E0141155105B1F7E901FB83EA834991B1
:102D80005991C40FD51FEC17FD0761F48081918123
:102D90000296840F951FE90199838883828193812C
:102DA0009B838A83F0E0E0E012968D919C911397CB
:102DB0000097B9F52D913C911197CD010296820FA4
:102DC000931F2091F4063091F5062817390739F63C
:102DD000309751F51092F7061092F606B093F5066B
:102DE000A093F406BCCFD383C28340815181840F6A
:102DF000951FC817D90761F44E5F5F4F888199818D
:102E0000480F591F518340838A819B81938382831A
:102E10002115310509F0B0CFF093F706E093F606DF
:102E20009ECFFD01DC01C0CF13821282D7CFF89470
:022E3000FFCFD2
:102E3200E803CF03CF03CF03CF03CF03CF03CF03E7
:102E4200CF030000F8068000B20200B20200B20214
:102E520000B20200B20200B20200B20200B20200EC
:102E6200B20200B20200B20200B20200B20200B22A
:102E72000200B20200B20200B20200B20200B202CA
:102E820000B20200B20200B20200B20200B20200BC
:102E9200B20200B20200B20200B20200B20200B2FA
:102EA2000200B20200B20200B20200B20200B2029A
:102EB20000B20200B20200B20200B20200B202008C
:102EC200B20200B20200B20200B20200B20200B2CA
:102ED2000200B20200B20200B20200B2020000001E
:102EE2000000C9050000000005070000000066049C
:102EF200D003FD03B3042E040C0420040D0A004782
:102F02006F616C3A3A70726F636573732829006E51
:102F1200616E00696E66006F766600646973746143
:102F22006E63654572726F723A202000726561634A
:102F3200686500476F746F3A3A70726F63657373B6
:102F4200282900436F6E74726F6C3A3A757064612F
:102F5200746550574D2829006C6566742070776D32
:102F62003A200072696768742070776D3A200052C7
:102F72006F626F7453746174653A3A757064617408
:102F820065282900706F7365006973526561636813
:102F92006564282900476F616C4C6973743A3A671B
:102FA20050726F6365737328476F616C20636F6E35
:102FB20073742620676F616C290061737365727682
:102FC2004C6F6F7000476F616C4C6973743A3A7260
:102FD20065736574476F616C732829006C6F6F703D
:022FE2000000ED
:00000001FF
