:100000000C948D010C948B0C0C94600C0C94350C9E
:100010000C940A0C0C94DF0B0C94B40B0C94890B0D
:100020000C945E0B0C94BE010C94BE010C94BE01AA
:100030000C94BE010C94BE010C94BE010C94BE0144
:100040000C94BE010C94BE010C94BE010C94BE0134
:100050000C94BE010C94BE010C94BE010C94140BC4
:100060000C94BE010C94E00C0C94B60C0C94BE01E4
:100070000C94BE010C94BE010C94BE010C94BE0104
:100080000C94BE010C94BE010C94BE010C94BE01F4
:100090000C94BE010C94BE010C94BE010C94BE01E4
:1000A0000C94BE010C94BE010C94BE010C94BE01D4
:1000B0000C94BE010C94BE010C94BE010C94BE01C4
:1000C0000C94BE010C94BE010C94BE010C94BE01B4
:1000D0000C94BE010C94BE010C94BE010C94BE01A4
:1000E0000C94BE01084AD73B3BCE016E84BCBFFDD9
:1000F000C12F3D6C74319ABD56833DDA3D00C77FF8
:1001000011BED9E4BB4C3E916BAAAABE0000008090
:100110003F05A84CCDB2D44EB93836A9020C50B91F
:10012000918688083CA6AAAA2ABE000000803F004B
:100130000C941D030C9420020C94EB030C94040308
:100140000C9446020C94B3030C9491030C94450355
:100150000C94F0020C9442020C94C2020C943103F1
:100160000C94E8020C940F020C94F5010C94BD025F
:100170000C94D6020C94FA020C94B5020C943D0730
:100180000C94D1040C9434020C9416020C94540375
:100190000C943C020C94A5030C94E3040C940B0205
:1001A0000C942E020C942A020C94CB040C94380468
:1001B0000C940E030C94C50D0C94E0020C945503A2
:1001C0000C943B030C9407020C9427030C944E05EB
:1001D0000C9413020C9482030C9426020C94640970
:1001E0000C941C020C9438020C94CC020C94E9047C
:1001F0000C94F0010C944F03000020002300260013
:1002000029002C002F00320000010000030106012C
:10021000090100002100240027002A002D003000E1
:10022000330001010000040107010A01000022005F
:10023000250028002B002E003100340002010000B0
:10024000050108010B010505050507050808080853
:10025000020202020A0A080804040404010101015E
:100260000101010103030303030303030407070759
:100270000C0C0C0C0C0C0C0C0202020206060606FE
:10028000060606060B0B0B0B0B0B0B0B01021020CB
:1002900020080810204010204080020102010804BC
:1002A0000201010204081020408080402010080450
:1002B00002018004020180402010080402010804A9
:1002C00002010102040810204080010204081020ED
:1002D000408000000A0B02090C0D0E080703040100
:1002E000000000000000000000000000000000000E
:1002F00000000000000000000000000000001211DB
:1003000010000000000000000000000000000000DD
:100310000000000000000000C50D11241FBECFEF3B
:10032000D1E2DEBFCDBF00E00CBF13E0A0E0B2E041
:10033000E4E5FEE200E00BBF02C007900D92A43B93
:10034000B107D9F726E0A4EBB3E001C01D92AA3FA4
:10035000B207E1F711E0CDE8D1E000E006C0219757
:100360000109802FFE010E94E715CC38D10780E0FB
:100370000807A9F70E94920F0C9428170C9400000C
:10038000282F30E0F901EE52FD4F9491F901E45726
:10039000FD4F44912A5B3D4FF9012491222309F43A
:1003A00035C0992311F191509231F8F4E92FF0E022
:1003B0008827E252FE4F8F4F0C94E7150F0213026D
:1003C000F00107020B02F50116021C0220022602B0
:1003D0002A022E0234023802F5013C024202460291
:1003E000809180008F7780938000E22FF0E0EE0F05
:1003F000FF1FE45DFD4FA591B4918FB7F894EC9188
:10040000611148C040954E234C938FBF0895809151
:1004100080008F7DE8CF80918000877FE4CF84B516
:100420008F7784BDE2CF84B58F7DFBCF8091B00004
:100430008F778093B000D9CF8091B0008F7DF9CFB6
:10044000809190008F7780939000CFCF8091900023
:100450008F7DF9CF80919000877FF5CF8091A000AC
:100460008F778093A000C1CF8091A0008F7DF9CFBE
:100470008091A000877FF5CF809120018F778093B6
:100480002001B3CF809120018F7DF9CF8091200191
:10049000877FF5CF4E2BB8CFCF93DF9390E0FC0151
:1004A000E457FD4F24918A5B9D4FFC018491882382
:1004B000D1F090E0880F991FFC01EE5EFD4FA591F1
:1004C000B491FC01E45DFD4FC591D491623071F4AB
:1004D0009FB7F8943C91822F809583238C93E88179
:1004E0002E2B28839FBFDF91CF9108958FB7F8946B
:1004F000EC912E2B2C938FBFF6CF1F93CF93DF93CE
:10050000182FEB0161E00E944C02209739F460E063
:10051000812FDF91CF911F910C94C001CF3FD10566
:1005200011F461E0F5CFE12FF0E0EE52FD4FE491E0
:10053000E150E23108F0B3C0F0E08827ED55FD4FFF
:100540008F4F0C94E715B502BD02C202CC02D60251
:100550004F03E002E802F002FA0204030E031D0357
:1005600027034F0331033B03450384B5806884BDF3
:10057000C7BDDF91CF911F91089584B5806284BD7E
:10058000C8BDF7CF80918000806880938000D093B1
:100590008900C0938800EDCF8091800080628093B5
:1005A0008000D0938B00C0938A00E3CF80918000BD
:1005B000886080938000D0938D00C0938C00D9CF49
:1005C0008091B00080688093B000C093B300D1CF19
:1005D0008091B00080628093B000C093B400C9CF16
:1005E00080919000806880939000D0939900C09390
:1005F0009800BFCF80919000806280939000D0934C
:100600009B00C0939A00B5CF809190008860809342
:100610009000D0939D00C0939C00ABCF8091A00030
:1006200080688093A0008091A0008F7B8093A000C1
:10063000D093A900C093A8009CCF8091A0008062B5
:100640008093A000D093AB00C093AA0092CF80917A
:10065000A00088608093A000D093AD00C093AC0050
:1006600088CF80912001806880932001D093290158
:10067000C09328017ECF8091200180628093200169
:10068000D0932B01C0932A0174CF80912001886000
:1006900080932001D0932D01C0932C016ACFC038E4
:1006A000D1050CF03ECF33CF0895AF92BF92CF92D9
:1006B000DF92EF92FF920F931F93CF93DF936C0122
:1006C0007B018B01040F151FEB015E01AE18BF0803
:1006D000C017D10759F06991D601ED91FC910190B5
:1006E000F081E02DC6011995892B79F7C501DF91BD
:1006F000CF911F910F91FF90EF90DF90CF90BF901F
:10070000AF900895FC01538D448D252F30E0842F48
:1007100090E0821B930B541710F0CF960895019729
:100720000895FC01918D828D981761F0A28DAE0F16
:10073000BF2FB11D5D968C91928D9F5F9F73928F9D
:1007400090E008958FEF9FEF0895FC01918D828DC9
:10075000981731F0828DE80FF11D858D90E0089596
:100760008FEF9FEF0895FC01918D228D892F90E0EE
:10077000805C9F4F821B91098F739927089585E7AD
:1007800094E00E94B30321E0892B09F420E0822F3A
:100790000895FC01A48DA80FB92FB11DA35ABF4F16
:1007A0002C91848D90E001968F739927848FA68970
:1007B000B7892C93A089B1898C91837080648C93C4
:1007C000938D848D981306C00288F389E02D808173
:1007D0008F7D80830895EF92FF920F931F93CF93A5
:1007E000DF93EC0181E0888F9B8D8C8D98131AC06C
:1007F000E889F989808185FF15C09FB7F894EE8953
:10080000FF896083E889F9898081837080648083AF
:100810009FBF81E090E0DF91CF911F910F91FF90FA
:10082000EF900895F62E0B8D10E00F5F1F4F0F73A2
:100830001127E02E8C8D8E110CC00FB607FCFACF5D
:10084000E889F989808185FFF5CFCE010E94C9032F
:10085000F1CFEB8DEC0FFD2FF11DE35AFF4FF0822E
:100860009FB7F8940B8FEA89FB8980818062CFCF94
:10087000CF93DF93EC01888D8823B9F0AA89BB89D7
:10088000E889F9898C9185FD03C0808186FD0DC0C2
:100890000FB607FCF7CF8C9185FFF2CF808185FFE3
:1008A000EDCFCE010E94C903E9CFDF91CF9108952A
:1008B00080E090E0892B29F00E94BF0381110E9403
:1008C000000080E090E0892B49F080E090E0892BE7
:1008D00029F00E94000081110E94000080E090E059
:1008E000892B49F080E090E0892B29F00E940000DC
:1008F00081110E94000080E090E0892B49F080E0A7
:1009000090E0892B29F00E94000081110C940000D6
:100910000895DC01ED91FD918081ED91FD91908133
:10092000ED91FD916C9163708E2309F064609F23BB
:1009300009F06860E6EAF4E0E60FF11D659565955B
:100940006D936D917D918D919D91099423C01AC0F5
:1009500012C016C010C01EC009C014C013C006C00B
:1009600019C009C00DC007C00DC014C0625070404E
:10097000804090400BC0615070408040904006C065
:100980006E5F01C06F5F7F4F8F4F9F4F9E938E931F
:100990007E936E9308958091BE039091BF030C9453
:1009A00089048091BC039091BD030C9489048091CB
:1009B000BA039091BB030C9489048091B803909181
:1009C000B9030C9489048091B6039091B7030C94F9
:1009D00089048091B4039091B5030C948904FC01BF
:1009E00001900020E9F73197AF01481B590BBC017A
:1009F00085E794E00C9455038F929F92AF92BF923B
:100A00000F931F93CF93DF93CDB7DEB7A1970FB6A8
:100A1000F894DEBF0FBECDBF19A2423008F44AE001
:100A20008E010F5D1F4F842E912CB12CA12CA5019E
:100A300094010E94C515E62FB901CA01EA30F4F409
:100A4000E05DD801EE938D01232B242B252B79F724
:100A500090E080E0109719F0CD010E94EF04A1967C
:100A60000FB6F894DEBF0FBECDBFDF91CF911F91BF
:100A70000F91BF90AF909F908F900895E95CE1CF68
:100A8000CF93DF930E94EF04EC018DEC92E00E9483
:100A9000EF048C0F9D1FDF91CF91089521E0FC01A1
:100AA000228380ED92E00C9440054F925F926F920A
:100AB0007F928F929F92AF92BF92CF92DF92EF92EE
:100AC000FF926B017C01AC019B010E949115882370
:100AD000C1F080EE92E00E94EF047C018DEC92E088
:100AE0000E94EF048E0D9F1DFF90EF90DF90CF903E
:100AF000BF90AF909F908F907F906F905F904F903E
:100B0000089546015701E894B7F82FEF3FEF4FE7FC
:100B10005FE7C501B4010E94911581110DC02FEF4F
:100B20003FEF4FE75FE7C501B4010E949912181625
:100B30001CF484EE92E0CFCF2FEF3FEF4FE75FE45E
:100B4000C701B6010E94C51418161CF488EE92E085
:100B5000C2CF2FEF3FEF4FE75FECC701B6010E9416
:100B6000991287FDF3CF20E030E0A901C701B6015B
:100B70000E949912B12CA12C87FF0AC06DE285E773
:100B800094E00E94EB035C01F7FAF094F7F8F0941C
:100B90002AE037ED43EA5BE3C701B6010E94BB11CF
:100BA0002B013C010E941C136B017C010E944B1322
:100BB0009B01AC01C301B2010E94BA112B013C019F
:100BC0004AE0C701B6010E94FC047C01EA0CFB1C50
:100BD0006EE285E794E00E94EB03E80EF91E20E048
:100BE00030E040E251E4C301B2010E94D2142B0173
:100BF0003C010E941C134B01B12CA12C4AE0C50101
:100C0000B4010E94FC04E80EF91EC501B4010E9463
:100C10004B139B01AC01C301B2010E94BA1120E049
:100C200030E040E251E40E94D2140E941C1390E094
:100C300080E04AE00E94FC04E80EF91E4FCF4F927C
:100C40005F926F927F928F929F92AF92BF92CF925C
:100C5000DF92EF92FF92CF93DF93EC014A015B01A9
:100C6000888A998AAA8ABB8A2C893D894E895F899C
:100C7000CB01B4010E94BB112B013C014C8A5D8A5F
:100C80006E8A7F8ACC84DD84EE84FF84A70196017E
:100C90000E94C51418162CF4CC8ADD8AEE8AFF8ACD
:100CA0000CC0F7FAF094F7F8F094A7019601C3018D
:100CB000B2010E94991287FDEFCF888E998EAA8E7D
:100CC000BB8E8CEE92E00E94EF04288939894A8914
:100CD0005B89688179818A819B810E94D2146B0132
:100CE0007C012C893D894E895F896C817D818E8153
:100CF0009F810E94D2149B01AC01C701B6010E94E2
:100D0000BB116B017C01288D398D4A8D5B8D688507
:100D100079858A859B850E94D2149B01AC01C7010D
:100D2000B6010E94BB110E945505288939894A895C
:100D30005B89688179818A819B810E94D2146B01D1
:100D40007C012C893D894E895F896C817D818E81F2
:100D50009F810E94D2149B01AC01C701B6010E9481
:100D6000BB116B017C01288D398D4A8D5B8D6885A7
:100D700079858A859B850E94D2149B01AC01C701AD
:100D8000B6010E94BB11DF91CF91FF90EF90DF90F1
:100D9000CF90BF90AF909F908F907F906F905F901B
:100DA0004F9008959F92AF92BF92CF92DF92EF92B1
:100DB000FF920F931F93CF93DF93CDB7DEB79FA41E
:100DC000A9A8BBA84BA55CA56DA57EA5CE010F96D5
:100DD0000E941F060E9415138B016B01770FEE080E
:100DE000FF084AE0C701B601F7FE0DC06DE285E7D6
:100DF00094E00E94EB0366277727CB016C197D09ED
:100E00008E099F094AE00E94FC048DEC92E00E944A
:100E1000EF040F3F110509F09CF401308FEF180724
:100E20004CF117FF0FC060E0892D0E94C00161E006
:100E30008A2D0E94C00166277727601B710B0BC0AB
:100E40000FEF10E061E0892D0E94C00160E08A2D63
:100E50000E94C001B8018B2D0E947D02DF91CF91CD
:100E60001F910F91FF90EF90DF90CF90BF90AF90C8
:100E70009F90089501E01FEFD6CF2F923F924F929F
:100E80005F926F927F928F929F92AF92BF92CF921A
:100E9000DF92EF92FF920F931F93CF93DF93CDB723
:100EA000DEB764970FB6F894DEBF0FBECDBF8C01DE
:100EB0002091490430914A0440914B0450914C04D4
:100EC000FC0163817481858196810E94BA112B0196
:100ED0003C0120914D0430914E0440914F045091BB
:100EE0005004F80167817085818592850E94BA114E
:100EF0004B015C01A3019201C301B2010E94D21413
:100F00006B017C01A5019401C501B4010E94D214BA
:100F10009B01AC01C701B6010E94BB110E944D1597
:100F20006B017C01A3019201C501B4010E943A1238
:100F30002091510430915204409153045091540433
:100F40000E94BA11698B7A8B8B8B9C8B83EF92E01A
:100F50000E94EF04C701B6010E94550520E030E071
:100F600040E251E4C701B6010E94991287FF07C011
:100F700081E0F801828384E093E00E9440052DEC3B
:100F80003CEC4CE45DE369897A898B899C890E94F9
:100F9000C51418161CF4C12CD12C76018BE093E0FB
:100FA0000E944005F80183849484A584B684B70127
:100FB000A60181ED93E00E941F06162F072F382E01
:100FC000292E20E030E0A901C501B4010E94991248
:100FD000811106C0812C912C8AE7A82E84E4B82EBA
:100FE0006091000270910102072E000C880B990B92
:100FF0000E944D136B017C0120E030E0A901612FBC
:10100000702F832D922D0E94C5144090C8035090DC
:10101000C9036090CA037090CB0387FD06C1A70186
:101020009601612F702F832D922D0E94C5141816E2
:1010300024F0C12ED02EE32CF22CA5019401C7017F
:10104000B6010E94C514181614F046015701A301F9
:101050009201C501B4010E94BA116B017C0120E02C
:1010600030E046E952E40E94C51420E030E046E951
:1010700052E418160CF423C120E030E041E653ECB2
:10108000C701B6010E94991220E030E041E653E426
:1010900087FDFFC08092C8039092C903A092CA0343
:1010A000B092CB038092410490924204A0924304F8
:1010B000B092440449895A896B897C898DEE93E00A
:1010C0000E941F0660934504709346048093470472
:1010D000909348048BE193E00E944005C090410446
:1010E000D0904204E0904304F09044048090450482
:1010F00090904604A0904704B090480488E0E5E54D
:10110000F4E0DE01119601900D928A95E1F7A501B8
:101110009401C701B6010E94BA1129813A814B811D
:101120005C810E94BA11762E672E582E492E88E0D7
:10113000E5E5F4E0DE01199601900D928A95E1F75C
:10114000A5019401C701B6010E94BB112D853E8502
:101150004F8558890E94BA11162F072FF82EE92EB5
:101160001F928AE08F931F9288E08F931F9289E0ED
:101170008F934F925F926F927F928DB79EB74C97ED
:101180000FB6F8949EBF0FBE8DBFADB7BEB7119618
:101190008CE1E9E0F4E001900D928A95E1F70E947C
:1011A000D2060FB6F894DEBF0FBECDBF1F9286E009
:1011B0008F931F9285E08F931F9284E08F93EF921D
:1011C000FF920F931F938DB79EB74C970FB6F8946D
:1011D0009EBF0FBE8DBFADB7BEB711968CE1E5E2E5
:1011E000F4E001900D928A95E1F70E94D2060FB6C5
:1011F000F894DEBF0FBECDBF64960FB6F894DEBF85
:101200000FBECDBFDF91CF911F910F91FF90EF9057
:10121000DF90CF90BF90AF909F908F907F906F9016
:101220005F904F903F902F900895F7FAF094F7F861
:10123000F094A7019601612F702F832D922D0E94AB
:10124000991287FD04C0C12ED02EE32CF22CB7FAE0
:10125000B094B7F8B094A7019601C501B4010E94FB
:10126000C514181614F046015701A3019201C501D7
:10127000B4010E94BA116B017C0120E030E046E924
:1012800052EC0E94991287FF0BC020E030E046E943
:1012900052E4C301B2010E94BA114B015C01FACEC3
:1012A00020E030E041E653E4C701B6010E94C514D6
:1012B00018160CF0EFCE20E030E041E653E4C30115
:1012C000B2010E94BB11E9CF4F925F926F927F9261
:1012D0008F929F92AF92BF92CF92DF92EF92FF9246
:1012E000CF93DF9300D000D0CDB7DEB78091E90671
:1012F000823008F08DC1F8948EED96E00E9489044A
:101300008091E5069091E606A091E706B091E80687
:1013100089839A83AB83BC8378948091F50682306D
:1013200008F078C1F8948AEE96E00E9489048091D2
:10133000F1069091F206A091F306B091F40678942C
:10134000EE27FF27E81BF90BFE83ED8380E393E094
:101350000E9440058091C6039091C70369817A81FC
:10136000681B790B072E000C880B990B0E944D13FC
:1013700020E030E040E652E40E94D2142BED3FE042
:1013800049E450E40E94D21420E030E04DE055E4FE
:101390000E94A3126B017C018091C4039091C5034C
:1013A0006D817E81681B790B072E000C880B990BD1
:1013B0000E944D1320E030E040E652E40E94D21437
:1013C0002BED3FE049E450E40E94D21420E030E0ED
:1013D0004DE055E40E94A3124B015C0120E030E097
:1013E00040EA51E4C701B6010E94D214609355044B
:1013F00070935604809357049093580420E030E093
:1014000040EA51E4C501B4010E94D214609359042A
:1014100070935A0480935B0490935C04A701960137
:10142000C501B4010E94BA1120E030E049E553E45F
:101430000E943A1220915104309152044091530479
:10144000509154040E94BB112BED3FE049EC50E455
:101450000E9493132B013C0140925104509252047C
:101460006092530470925404A5019401C701B6011F
:101470000E94BB1120E030E040E05FE30E94D21404
:101480006B017C012091C0033091C1034091C203E4
:101490005091C303C301B2010E94BB1120E030E0B0
:1014A00040E05FE30E94D2144B015C010E949E1257
:1014B0009B01AC01C701B6010E94D2149B01AC0193
:1014C0006091490470914A0480914B0490914C04BE
:1014D0000E94BB116093490470934A0480934B04AB
:1014E00090934C04C501B4010E943F159B01AC01CF
:1014F000C701B6010E94D2149B01AC0160914D045A
:1015000070914E0480914F04909150040E94BB1141
:1015100060934D0470934E0480934F049093500455
:10152000C701B6010E94550585E493E00E9440057D
:101530006091490470914A0480914B0490914C044D
:101540000E94550560914D0470914E0480914F04A6
:10155000909150040E94550580915104909152043D
:10156000A0915304B09154048093C0039093C1039D
:10157000A093C203B093C3032D813E813093C50372
:101580002093C40389819A819093C7038093C603F3
:101590008FEF9FE7909301028093000220910C0649
:1015A00030910D06F901EE0FFF1FE855FA4F8081CB
:1015B0009181DC0112964C91442339F040910E0642
:1015C00050910F062417350739F1DC01ED91FC919C
:1015D0000190F081E02D19958AE493E00E94400586
:1015E0008FE693E026960FB6F894DEBF0FBECDBF10
:1015F000DF91CF91FF90EF90DF90CF90BF90AF90B1
:101600009F908F907F906F905F904F900C944005CB
:10161000F89476CEF8948BCE8AE793E00E9440054A
:1016200090E080E00E9428171F920F920FB60F9251
:1016300011242F933F938F939F93AF93BF938091E8
:10164000100690911106A0911206B09113063091E8
:10165000D00323E0230F2D3758F50196A11DB11DAE
:101660002093D0038093100690931106A093120646
:10167000B09313068091CC039091CD03A091CE033B
:10168000B091CF030196A11DB11D8093CC0390931F
:10169000CD03A093CE03B093CF03BF91AF919F91A1
:1016A0008F913F912F910F900FBE0F901F90189523
:1016B00026E8230F0296A11DB11DD2CF1F920F92D3
:1016C0000FB60F9211240BB60F922F933F934F93A7
:1016D0005F936F937F938F939F93AF93BF93EF939A
:1016E000FF93E0911102F09112021995FF91EF9191
:1016F000BF91AF919F918F917F916F915F914F912A
:101700003F912F910F900BBE0F900FBE0F901F9027
:1017100018951F920F920FB60F9211240BB60F92CD
:101720002F933F934F935F936F937F938F939F93E9
:10173000AF93BF93EF93FF93E0910F02F0911002EC
:101740001995FF91EF91BF91AF919F918F917F91EB
:101750006F915F914F913F912F910F900BBE0F9022
:101760000FBE0F901F9018951F920F920FB60F92F9
:1017700011240BB60F922F933F934F935F936F9368
:101780007F938F939F93AF93BF93EF93FF93E091DA
:101790000502F09106021995FF91EF91BF91AF916B
:1017A0009F918F917F916F915F914F913F912F9179
:1017B0000F900BBE0F900FBE0F901F9018951F92A9
:1017C0000F920FB60F9211240BB60F922F933F93E7
:1017D0004F935F936F937F938F939F93AF93BF9339
:1017E000EF93FF93E0910302F09104021995FF91AA
:1017F000EF91BF91AF919F918F917F916F915F9189
:101800004F913F912F910F900BBE0F900FBE0F90F5
:101810001F9018951F920F920FB60F9211240BB6BE
:101820000F922F933F934F935F936F937F938F9379
:101830009F93AF93BF93EF93FF93E0910D02F091CD
:101840000E021995FF91EF91BF91AF919F918F91EA
:101850007F916F915F914F913F912F910F900BBEB0
:101860000F900FBE0F901F9018951F920F920FB6FA
:101870000F9211240BB60F922F933F934F935F93C8
:101880006F937F938F939F93AF93BF93EF93FF9348
:10189000E0910B02F0910C021995FF91EF91BF912D
:1018A000AF919F918F917F916F915F914F913F91F8
:1018B0002F910F900BBE0F900FBE0F901F90189599
:1018C0001F920F920FB60F9211240BB60F922F9307
:1018D0003F934F935F936F937F938F939F93AF93B8
:1018E000BF93EF93FF93E0910902F0910A021995DB
:1018F000FF91EF91BF91AF919F918F917F916F91E8
:101900005F914F913F912F910F900BBE0F900FBEA3
:101910000F901F9018951F920F920FB60F921124DF
:101920000BB60F922F933F934F935F936F937F93D9
:101930008F939F93AF93BF93EF93FF93E091070231
:10194000F09108021995FF91EF91BF91AF919F918E
:101950008F917F916F915F914F913F912F910F9058
:101960000BBE0F900FBE0F901F9018951F920F92F5
:101970000FB60F9211240BB60F922F933F934F93F4
:101980005F936F937F938F939F93AF93BF93EF93E7
:10199000FF9385E794E00E94C903FF91EF91BF9107
:1019A000AF919F918F917F916F915F914F913F91F7
:1019B0002F910F900BBE0F900FBE0F901F90189598
:1019C0001F920F920FB60F9211240BB60F922F9306
:1019D0008F939F93EF93FF93E0918504F09186049A
:1019E0008081E0918B04F0918C0482FD1DC0908178
:1019F00080918E048F5F8F7320918F04821741F046
:101A0000E0918E04F0E0EB58FB4F958F80938E04AD
:101A1000FF91EF919F918F912F910F900BBE0F909F
:101A20000FBE0F901F9018958081F2CF833071F117
:101A300020F48230C1F080E008958231C9F1833111
:101A4000D1F77093BD036093BC0381ED94E0909354
:101A50000C0280930B02809169008F7C80618093DF
:101A60006900EA9A11C07093B5036093B40389EEDC
:101A700094E0909304028093030280916A008C7F2B
:101A8000816080936A00EC9A81E008957093B703B7
:101A90006093B60383EE94E0909306028093050270
:101AA00080916A00837F846080936A00ED9AECCF16
:101AB0007093BF036093BE038BEC94E090930E028F
:101AC00080930D02809169008F7380648093690018
:101AD000EB9ADACF0F931F93CF93DF93EC01062F8E
:101AE000142F62E0802F0E944C0262E0812F0E943E
:101AF0004C02802F90E0FC01EA5BFD4FE491F0E0A6
:101B0000EE0FFF1FE850FE4FA591B491B983A88353
:101B1000FC01E457FD4F24912C83812F90E0FC01C0
:101B2000EA5BFD4FE491F0E0EE0FFF1FE850FE4F3F
:101B3000459154915B834A83FC01E457FD4FE49146
:101B4000ED831F82188619861A868BE39FE1019721
:101B5000F1F78C91282391E009F490E0DA018C915F
:101B6000E82309F092609E83BE01802F0E94160D2B
:101B70008B87BE01812F0E94160D9B85890F8B8755
:101B8000DF91CF911F910F9108950F931F93CF93E2
:101B9000DF934DEC5CEC6CE47FE34093D103509316
:101BA000D2036093D3037093D4038DEC9CECACEC24
:101BB000BEE38093D5039093D603A093D703B0934D
:101BC000D8038093D9039093DA03A093DB03B093F7
:101BD000DC0300E010E42CE935E40093DD0310930E
:101BE000DE032093DF033093E0031092E1031092B1
:101BF000E2031092E3031092E4031092E5031092C3
:101C0000E6031092E7031092E8031092E9031092A2
:101C1000EA031092EB031092EC034093ED03509310
:101C2000EE036093EF037093F0031092F1031092B0
:101C3000F2031092F3031092F4031092F503109242
:101C4000F6031092F7031092F8031092F903109222
:101C5000FA031092FB031092FC031092FD03109202
:101C6000FE031092FF0310920004109201041092E0
:101C700002041092030410920404109205041092BE
:101C800006041092070410920804809309049093AC
:101C90000A04A0930B04B0930C0400E010E020E0D1
:101CA0003FE300930D0410930E0420930F04309330
:101CB0001004109211041092120410921304109246
:101CC000140440E050E06AE774E440931504509334
:101CD000160460931704709318041092190410925C
:101CE0001A0410921B0410921C0410921D041092EE
:101CF0001E0410921F0410922004109221041092CE
:101D000022041092230410922404809325049093BB
:101D10002604A0932704B093280400932904109369
:101D20002A0420932B0430932C0410922D0410923B
:101D30002E0410922F0410923004409331045093DB
:101D4000320460933304709334041092350410927B
:101D5000360410923704109238041092390410920D
:101D60003A0410923B0410923C0410923D041092ED
:101D70003E0410923F0410924004109241041092CD
:101D800042041092430410924404109245041092AD
:101D9000460410924704109248041092780410925E
:101DA000770488EE93E0A0E0B0E08093790490930C
:101DB0007A04A0937B04B0937C048FEB92E0909321
:101DC00076048093750485EC90E090938204809370
:101DD000810484EC90E0909384048093830480ECED
:101DE00090E0909386048093850481EC90E090933A
:101DF00088048093870482EC90E090938A04809317
:101E0000890486EC90E090938C0480938B0410926C
:101E10008E0410928F0410929004109291041092EC
:101E2000490410924A0410924B0410924C041092F0
:101E30004D0410924E0410924F04109250041092D0
:101E400051041092520410925304109254041092B0
:101E50005504109256041092570410925804109290
:101E6000590410925A0410925B0410925C0442E1EF
:101E700063E08DE594E00E946A0D42E063E189E64B
:101E800094E00E946A0D86E9E9E1F2E0A2E1B5E0A2
:101E900001900D928A95E1F7E8EAF5E084E6DF012A
:101EA0001D928A95E9F710920D0610920C06109279
:101EB0000F0610920E061092140586E893E00E9419
:101EC000400542E163E08AEE96E00E946A0D42E03E
:101ED00063E18EED96E00E946A0D2FB7F894809131
:101EE000100690911106A0911206B09113062FBF13
:101EF000E4E1F6E024E1EF01322F19923A95E9F797
:101F000080839183A283B3837496C6E0EC3DFC0783
:101F100091F71092DD061092DC06DF91CF911F91B0
:101F20000F910895CF93DF9300D000D0CDB7DEB7E7
:101F3000789484B5826084BD84B5816084BD85B5A4
:101F4000826085BD85B5816085BD80916E008160B0
:101F500080936E0010928100809181008260809356
:101F60008100809181008160809381008091800058
:101F70008160809380008091B10084608093B10083
:101F80008091B00081608093B00080919100826068
:101F90008093910080919100816080939100809165
:101FA00090008160809390008091A1008260809376
:101FB000A1008091A10081608093A1008091A00088
:101FC00081608093A0008091210182608093210133
:101FD00080912101816080932101809120018160A5
:101FE0008093200180917A00846080937A008091B0
:101FF0007A00826080937A0080917A008160809379
:102000007A0080917A00806880937A001092C100F3
:10201000E0918504F091860482E08083E091810460
:10202000F09182041082E0918304F09184048FEC9B
:10203000808310928D04E0918904F0918A0486E0F7
:102040008083E0918704F09188048081806180839F
:10205000E0918704F0918804808188608083E0911A
:102060008704F0918804808180688083E0918704F0
:10207000F091880480818F7D808342E3242E312C6F
:1020800054E1B52EAA24A39488248394912C8091A2
:102090000202882309F47EC08091DC069091DD065F
:1020A0000A9770F4E4E1F6E090E080E02481358165
:1020B000232B09F42DC1019674968A309105B1F74E
:1020C0008FE090E00E9403168C01DC0112961C92B6
:1020D0001297E9EBF2E01196FC93EE93C12CD12C10
:1020E0008AE7E82E84E4F82E1396CD92DD92ED92E5
:1020F000FC921697F80117821086118612861B969D
:102100001D921D921D921C921E9780910E06909119
:102110000F060196B1010E94B11590930F068093AE
:102120000E06880F991FFC01E855FA4F80819181B6
:102130000E949F16E0910E06F0910F06EE0FFF1F12
:10214000E855FA4F118300838DE993E00E94EF0474
:1021500040900E0650900F06052C000C660877087C
:102160004AE0C301B20177FE0DC06DE285E794E05D
:102170000E94EB0366277727CB016419750986094E
:1021800097094AE00E94FC048DEC92E00E94EF0463
:10219000109202028FB7F8944091100650911106E8
:1021A00060911206709113068FBF04E116E01E8342
:1021B0000D83AD81BE8153961C921E925297149648
:1021C0008D919C911597892B39F1FD018081918129
:1021D000A281B38141845284638474846A017B0147
:1021E000C81AD90AEA0AFB0AC414D504E604F7049B
:1021F00098F0840D951DA61DB71D80839183A28341
:10220000B3838189882341F02585368521153105E1
:1022100009F05EC0938A828A2D813E812C5E3F4FF9
:102220003E832D838CED96E08217930711F6D8013B
:1022300052968D919C915397892BD9F11496ED91DB
:10224000FC91159718968C911897882309F45EC015
:1022500016968D919C911995F80182899389029720
:1022600041F58091DC069091DD06892B11F1848186
:102270009581892BF1F0D801EB2D1D92EA95E9F7B4
:102280002FB7F8948091100690911106A091120634
:10229000B09113062FBFF80180839183A283B3838B
:1022A0008091DC069091DD0601979093DD06809386
:1022B000DC060C5E1F4FCD80DE800C151D0509F07D
:1022C000B6CF8EEA93E00E9440050E945804DFCE0C
:1022D000AD81BE811F968D919C9150978217930777
:1022E00008F09ACF53969C928E92529701965096F0
:1022F0009C938E931F978217930708F48DCFE2E08B
:10230000F0E05396FC93EE93529786CF1995A4CFA5
:10231000B89EF001B99EF00D1124EC5EF94F82E3F6
:1023200090E0A0E0B0E081879287A387B487A4E61D
:10233000B9E0B583A48317821682108616861586A7
:10234000A18A2FB7F8948091100690911106A09160
:102350001206B09113062FBF80839183A283B383AB
:102360008091DC069091DD0601969093DD068093C6
:10237000DC06A6CE5058BB27AA270E94D2110C9487
:1023800077140E943E1438F00E94451420F039F46E
:102390009F3F19F426F40C9414140EF4E095E7FB17
:1023A0000C940014E92F0E949C1458F3BA1762078A
:1023B00073078407950720F079F4A6F50C94BE14F2
:1023C0000EF4E0950B2EBA2FA02D0B01B901900150
:1023D0000C01CA01A0011124FF27591B99F0593F94
:1023E00050F4503E68F11A16F040A22F232F342FDC
:1023F0004427585FF3CF469537952795A795F0402A
:102400005395C9F77EF41F16BA0B620B730B840B3E
:10241000BAF09150A1F0FF0FBB1F661F771F881FF6
:10242000C2F70EC0BA0F621F731F841F48F487954E
:1024300077956795B795F7959E3F08F0B0CF939540
:10244000880F08F09927EE0F9795879508950E94B9
:102450003E1460F080E891E009F49EEF0E9445147C
:1024600028F040E851E071F45EEF0CC00C941414B5
:102470000C94BE14E92FE0780E949C1440F3092EBE
:10248000052AB1F3261737074807590738F00E2EEB
:1024900007F8E02569F0E025E0640AC0EF6307F87B
:1024A000009407FADB01B9019D01DC01CA01AD010D
:1024B000EF930E94BA120E9477140E946A125F91F1
:1024C000552339F02BED3FE049E450FD49EC0C94E5
:1024D000BB110895DF93DD27B92FBF7740E85FE395
:1024E0001616170648075B0718F4D92F0E94CA145E
:1024F0009F938F937F936F930E948D15E4EEF0E08E
:102500000E9417140E9477142F913F914F915F9171
:102510000E94E514DD2351F09058A2EA2AED3FE035
:1025200049EC5FE3D0785D270E94D211DF910C94D3
:1025300077140E94DC1308F481E008950E944E1481
:10254000E3950C9488140E94B7120C9477140E949F
:10255000451458F00E943E1440F029F45F3F29F0E2
:102560000C94001451110C94BF140C9414140E9478
:102570009C1468F39923B1F3552391F3951B550BE4
:10258000BB27AA2762177307840738F09F5F5F4F46
:10259000220F331F441FAA1FA9F335D00E2E3AF085
:1025A000E0E832D091505040E695001CCAF72BD09D
:1025B000FE2F29D0660F771F881FBB1F26173707EE
:1025C0004807AB07B0E809F0BB0B802DBF01FF2720
:1025D00093585F4F3AF09E3F510578F00C940014E9
:1025E0000C94BF145F3FE4F3983ED4F3869577953F
:1025F0006795B795F7959F5FC9F7880F911D9695D9
:10260000879597F90895E1E0660F771F881FBB1F34
:10261000621773078407BA0720F0621B730B840BE1
:10262000BA0BEE1F88F7E09508950E941C1368947A
:10263000B1110C94BF1408950E94A41488F09F5700
:1026400098F0B92F9927B751B0F0E1F0660F771FD6
:10265000881F991F1AF0BA95C9F714C0B13091F0CC
:102660000E94BE14B1E008950C94BE14672F782F19
:102670008827B85F39F0B93FCCF386957795679591
:10268000B395D9F73EF490958095709561957F4FFD
:102690008F4F9F4F0895E89409C097FB3EF49095A3
:1026A0008095709561957F4F8F4F9F4F9923A9F02B
:1026B000F92F96E9BB279395F695879577956795BA
:1026C000B795F111F8CFFAF4BB0F11F460FF1BC0FE
:1026D0006F5F7F4F8F4F9F4F16C0882311F096E991
:1026E00011C0772321F09EE8872F762F05C066233F
:1026F00071F096E8862F70E060E02AF09A95660FF8
:10270000771F881FDAF7880F9695879597F90895B0
:102710000E943E1420F019F00E94451450F40C94CD
:1027200014140C94BF14E92F0E949C1488F35523B1
:10273000B1F3E7FB6217730784079507A8F189F3E4
:10274000E92FFF2788232AF03197660F771F881F0C
:10275000DAF7952F5527442332F091505040220F3D
:10276000331F441FD2F7BB27E91BF50B621B730B0A
:10277000840BB109B1F222F4620F731F841FB11DE3
:1027800031972AF0660F771F881FBB1FEFCF91503C
:10279000504062F041F0882332F0660F771F881FA7
:1027A00091505040C1F793950C94061486957795F7
:1027B00067959F5FD9F7F7CF990F0008550FAA0BC0
:1027C000E0E8FEEF16161706E807F907C0F0121644
:1027D0001306E407F50798F0621B730B840B950B47
:1027E00039F40A2661F0232B242B252B21F408959C
:1027F0000A2609F4A140A6958FEF811D811D089539
:1028000097F99F6780E870E060E008959F3F31F09E
:10281000915020F4879577956795B795880F911D0E
:102820009695879597F908959FEF80EC0895DF932B
:10283000CF931F930F93FF92EF92DF927B018C0156
:10284000689406C0DA2EEF010E94E514FE01E894B8
:10285000A5912591359145915591A6F3EF010E94DF
:10286000D211FE019701A801DA9469F7DF90EF9089
:10287000FF900F911F91CF91DF91089500240A944A
:102880001616170618060906089500240A9412164B
:1028900013061406050608950C9414140E94A4143B
:1028A000D8F3E894E0E0BB279F57F0F02AED3FE033
:1028B00049EC06C0EE0FBB0F661F771F881F28F07C
:1028C000B23A62077307840728F0B25A620B730B9F
:1028D000840BE3959A9572F7803830F49A95BB0F84
:1028E000661F771F881FD2F790480C940814092E92
:1028F0000394000C11F4882352F0BB0F40F4BF2B5B
:1029000011F460FF04C06F5F7F4F8F4F9F4F08959A
:10291000EF93E0FF07C0A2EA2AED3FE049EC5FEB4E
:102920000E94D2110E9477140F90039401FC9058DA
:10293000E1E1F1E00C949D1557FD9058440F551FAF
:1029400059F05F3F71F04795880F97FB991F61F031
:102950009F3F79F087950895121613061406551FA8
:10296000F2CF4695F1DF08C0161617061806991F14
:10297000F1CF86957105610508940895E894BB2709
:1029800066277727CB0197F908950E94DC1308F496
:102990008FEF08959B01AC0160E070E080E89FE359
:1029A0000C94A3120E94E5140C9477140E943E1418
:1029B00038F00E94451420F0952311F00C94001477
:1029C0000C94141411240C94BF140E949C1470F3E2
:1029D000959FC1F3950F50E0551F629FF001729FC4
:1029E000BB27F00DB11D639FAA27F00DB11DAA1FD3
:1029F000649F6627B00DA11D661F829F2227B00D20
:102A0000A11D621F739FB00DA11D621F839FA00DAA
:102A1000611D221F749F3327A00D611D231F849FFA
:102A2000600D211D822F762F6A2F11249F57504051
:102A30009AF0F1F088234AF0EE0FFF1FBB1F661FCC
:102A4000771F881F91505040A9F79E3F510580F095
:102A50000C9400140C94BF145F3FE4F3983ED4F33D
:102A6000869577956795B795F795E7959F5FC1F739
:102A7000FE2B880F911D9695879597F908959F9342
:102A80000E944E140F9007FCEE5F0C94881419F40A
:102A900016F40C9414140C9406140E94A414B8F3A5
:102AA0009923C9F3B6F39F57550B87FF0E949615DC
:102AB0000024A0E640EA900180585695979528F4A6
:102AC000805C660F771F881F20F02617370748079E
:102AD00030F4621B730B840B202931294A2BA695F5
:102AE00017940794202531254A2758F7660F771F3A
:102AF000881F20F026173707480730F4620B730B46
:102B0000840B200D311D411DA09581F7B901842F43
:102B10009158880F9695879508959B01AC010C9468
:102B2000D2140E94DC13880B990B089591505040E9
:102B3000660F771F881FD2F708959F938F937F9317
:102B40006F93FF93EF939B01AC010E94D214EF911E
:102B5000FF910E9417142F913F914F915F910C9418
:102B6000D21497FB072E16F4009407D077FD09D0F6
:102B70000E94EF1507FC05D03EF4909581959F4F7C
:102B80000895709561957F4F0895A1E21A2EAA1BB2
:102B9000BB1BFD010DC0AA1FBB1FEE1FFF1FA2170D
:102BA000B307E407F50720F0A21BB30BE40BF50B0A
:102BB000661F771F881F991F1A9469F76095709593
:102BC000809590959B01AC01BD01CF010895EE0F5A
:102BD000FF1F881F8BBF0790F691E02D1994AA1B49
:102BE000BB1B51E107C0AA1FBB1FA617B70710F0F8
:102BF000A61BB70B881F991F5A95A9F7809590952A
:102C0000BC01CD0108950F931F93CF93DF938230C2
:102C1000910510F482E090E0E091F806F091F90659
:102C200030E020E0B0E0A0E0309799F421153105C4
:102C300009F44AC0281B390B24303105D8F58A81A4
:102C40009B816115710589F1FB0193838283FE01EC
:102C500011C0408151810281138148175907E0F06A
:102C60004817590799F4109761F012960C93129730
:102C700013961C933296CF01DF91CF911F910F9144
:102C800008950093F8061093F906F4CF2115310545
:102C900051F04217530738F0A901DB019A01BD0139
:102CA000DF01F801C1CFEF01F9CF9093F9068093CE
:102CB000F806CDCFFE01E20FF31F819391932250CE
:102CC000310939832883D7CF2091F6063091F70652
:102CD000232B41F420911502309116023093F70610
:102CE0002093F6062091130230911402211531052C
:102CF00041F42DB73EB74091170250911802241BA2
:102D0000350BE091F606F091F706E217F307A0F411
:102D10002E1B3F0B2817390778F0AC014E5F5F4F31
:102D20002417350748F04E0F5F1F5093F706409366
:102D3000F606819391939FCFF0E0E0E09CCFCF9394
:102D4000DF930097E9F0FC01329713821282A09181
:102D5000F806B091F906ED0130E020E01097A1F4FB
:102D600020813181820F931F2091F6063091F70662
:102D70002817390709F061C0F093F706E093F606CB
:102D8000DF91CF910895EA01CE17DF07E8F54A8178
:102D90005B819E0141155105B1F7E901FB83EA838F
:102DA00049915991C40FD51FEC17FD0761F480813B
:102DB00091810296840F951FE9019983888382810E
:102DC00093819B838A83F0E0E0E012968D919C9141
:102DD00013970097B9F52D913C911197CD0102966B
:102DE000820F931F2091F6063091F70628173907B6
:102DF00039F6309751F51092F9061092F806B09313
:102E0000F706A093F606BCCFD383C28340815181DD
:102E1000840F951FC817D90761F44E5F5F4F8881F3
:102E20009981480F591F518340838A819B819383E5
:102E300082832115310509F0B0CFF093F906E093B4
:102E4000F8069ECFFD01DC01C0CF13821282D7CFDE
:042E5000F894FFCF24
:102E5400E803015403540354035403540354035424
:102E64000354030000FA068000B30200B30200B367
:102E74000200B30200B30200B30200B30200B302C3
:102E840000B30200B30200B30200B30200B30200B5
:102E9400B30200B30200B30200B30200B30200B3F2
:102EA4000200B30200B30200B30200B30200B30293
:102EB40000B30200B30200B30200B30200B3020085
:102EC400B30200B30200B30200B30200B30200B3C2
:102ED4000200B30200B30200B30200B30200B30263
:102EE40000B30200B30200B30200B30200B3020055
:102EF400B30200B30200B30200B30200B302000045
:102F04000000004E05000000003D0700000000EB3B
:102F140003550382033804B3039103A5030D0A0088
:102F2400476F616C3A3A70726F6365737328290056
:102F34006E616E00696E66006F766600706964206B
:102F44003A200064697374616E63654572726F72CE
:102F54003A20200072656163686500476F746F3AB8
:102F64003A70726F63657373282900436F6E7472CD
:102F74006F6C3A3A75706461746550574D28290036
:102F8400526F626F7453746174653A3A7570646118
:102F94007465282900706F736500476F616C4C6914
:102FA40073743A3A6750726F6365737328476F613D
:102FB4006C20636F6E73742620676F616C290061E7
:102FC40073736572764C6F6F7000697352656163D9
:102FD400686564282900476F616C4C6973743A3AD8
:102FE4007265736574476F616C732829006C617333
:102FF40074476F616C496E646578203A20006C6F89
:043004006F700000E9
:00000001FF
